:100000000C9462000C948A000C948A000C948A0070
:100010000C948A000C948A000C948A000C948A0038
:100020000C948A000C948A000C948A000C948A0028
:100030000C948A000C948A000C948A000C948A0018
:100040000C9492020C948A000C94F5010C94CF014C
:100050000C948A000C948A000C948A000C948A00F8
:100060000C948A000C948A000000000023002600F3
:10007000290000000008000201000003040700003E
:1000800000000000000000000000250028002B00F8
:1000900000000000240027002A00040404040404D3
:1000A0000404020202020202030303030303010227
:1000B00004081020408001020408102001020408F6
:1000C0001020CA0A11241FBECFEFD8E0DEBFCDBF7B
:1000D00011E0A0E0B1E0ECE9F6E102C005900D927C
:1000E000A036B107D9F722E0A0E6B1E001C01D9229
:1000F000A633B207E1F710E0C2E6D0E004C02197D2
:10010000FE010E94410BC136D107C9F70E94770852
:100110000C944C0B0C940000CF92DF92EF92FF9264
:100120000F931F93CF93DF936C017A018B01C0E093
:10013000D0E0CE15DF0589F0D8016D918D01D60193
:10014000ED91FC910190F081E02DC6010995892B7C
:1001500011F47E0102C02196ECCFC701DF91CF914F
:100160001F910F91FF90EF90DF90CF900895FC01C9
:10017000538D448D252F30E0842F90E0821B930B0C
:10018000541710F0CF96089501970895FC01918DB2
:10019000828D981761F0828DDF01A80FB11D5D96E9
:1001A0008C91928D9F5F9F73928F90E008958FEF57
:1001B0009FEF0895FC01918D828D981731F0828D0B
:1001C000E80FF11D858D90E008958FEF9FEF089562
:1001D000FC01918D228D892F90E0805C9F4F821BC6
:1001E00091098F739927089581E791E00E94E800B3
:1001F00021E0892B09F420E0822F0895FC01848DF1
:10020000DF01A80FB11DA35ABF4F2C91848D90E040
:1002100001968F739927848FA689B7892C93A0891B
:10022000B1898C9180648C93938D848D981306C0D2
:100230000288F389E02D80818F7D80830895EF927D
:10024000FF920F931F93CF93DF93EC0181E0888F90
:100250009B8D8C8D981305C0E889F989808185FD77
:1002600024C0F62E0B8D10E00F5F1F4F0F73112768
:10027000E02E8C8DE8120CC00FB607FCFACFE8898F
:10028000F989808185FFF5CFCE010E94FE00F1CF74
:100290008B8DFE01E80FF11DE35AFF4FF0820B8FAB
:1002A000EA89FB898081806207C0EE89FF896083CB
:1002B000E889F98980818064808381E090E0DF9122
:1002C000CF911F910F91FF90EF900895CF93DF93FF
:1002D000EC01888D8823C9F0EA89FB89808185FD3E
:1002E00005C0A889B9898C9186FD0FC00FB607FC9F
:1002F000F5CF808185FFF2CFA889B9898C9185FFE0
:10030000EDCFCE010E94FE00E7CFDF91CF9108959F
:1003100080E090E0892B29F00E94F40081110C9478
:1003200000000895833081F028F4813099F0823004
:10033000A1F008958730A9F08830B9F08430D1F465
:10034000809180008F7D03C0809180008F778093A3
:100350008000089584B58F7702C084B58F7D84BDF9
:1003600008958091B0008F7703C08091B0008F7D99
:100370008093B0000895089580E090E00895DC0136
:10038000ED91FD91BD010190F081E02D40E00995D6
:1003900091E0811190E0892F08950E94470B1F92F0
:1003A0000F920FB60F9211242F933F934F935F93A9
:1003B0006F937F938F939F93AF93BF93EF93FF932D
:1003C00081E791E00E94FE00FF91EF91BF91AF9114
:1003D0009F918F917F916F915F914F913F912F915D
:1003E0000F900FBE0F901F9018951F920F920FB68F
:1003F0000F9211242F938F939F93EF93FF93E0918C
:100400008101F09182018081E0918701F091880162
:1004100082FD12C0908180918A018F5F8F7320913D
:100420008B01821751F0E0918A01F0E0EF58FE4F06
:10043000958F80938A0101C08081FF91EF919F91F8
:100440008F912F910F900FBE0F901F9018951F93B3
:10045000CF93DF93282F30E0F901EE58FF4F8491BE
:10046000F901E255FF4FD491F901E656FF4FC491CF
:10047000CC23C9F0162F81110E949201EC2FF0E0DD
:10048000EE0FFF1FEA57FF4FA591B4918FB7F89475
:10049000111105C09C91ED2FE095E92302C0EC916C
:1004A000ED2BEC938FBFDF91CF911F910895CF93E8
:1004B000DF93EC0160E08E810E94270261E08E8173
:1004C0000E94270260E08E810E9427028BE891E063
:1004D0000197F1F7DF91CF9108953FB7F89480919C
:1004E000610190916201A0916301B091640126B510
:1004F000A89B05C02F3F19F00196A11DB11D3FBF5C
:10050000BA2FA92F982F8827820F911DA11DB11DE9
:10051000BC01CD0142E0660F771F881F991F4A95E5
:10052000D1F708951F920F920FB60F9211242F93B7
:100530003F938F939F93AF93BF9380916601909168
:100540006701A0916801B09169013091600123E0D9
:10055000230F2D3720F40196A11DB11D05C026E8FB
:10056000230F0296A11DB11D2093600180936601A7
:1005700090936701A0936801B09369018091610134
:1005800090916201A0916301B09164010196A11D57
:10059000B11D8093610190936201A0936301B093B8
:1005A0006401BF91AF919F918F913F912F910F90D7
:1005B0000FBE0F901F901895CF92DF92EF92FF928F
:1005C0000F931F93CF93DF937C016C0187E0C80EDC
:1005D000D11CC0E0D0E0062F10E0B8010C2E02C004
:1005E000759567950A94E2F76170F60181916F0144
:1005F0000E9427022196C430D10579F7C701DF9107
:10060000CF911F910F91FF90EF90DF90CF900C94BE
:100610005702CF92DF92EF92FF920F931F93CF93E7
:10062000DF93EC01F62E642F8C810E9427028D81CE
:100630008F3F19F060E00E9427028F850F2D10E098
:1006400084FF25C06E0187E0C80ED11CE12CF12C7F
:10065000B8010E2C02C0759567950A94E2F7617097
:10066000F60181916F010E942702FFEFEF1AFF0A46
:1006700088E0E816F10461F7CE01DF91CF911F9178
:100680000F91FF90EF90DF90CF900C945702B8013C
:1006900084E0759567958A95E1F7CE010E94DC02AA
:1006A0006F2DCE01DF91CF911F910F91FF90EF90B1
:1006B000DF90CF900C94DC0241E00E94090381E0BE
:1006C00090E0089540E00C94090361E00E94620309
:1006D0008BE39FE10197F1F7089508958EBD000027
:1006E0000DB407FEFDCF8EB508958CBD9DBD089558
:1006F0001F93CF93DF93EC01162F83E590E00E94C8
:10070000750360E08E850E942702812F80680E9419
:100710006E0380E00E946E03182F61E08E850E94B8
:100720002702812FDF91CF911F910895EF92FF92C1
:100730001F93CF93DF931F92CDB7DEB77C01162FA7
:1007400083E590E049830E94750360E0F7018685A8
:100750000E942702812F0E946E034981842F0E94EC
:100760006E0361E0F70186850F90DF91CF911F91B5
:10077000FF90EF900C942702CF92DF92EF92FF92BE
:100780000F931F93CF93DF93EC016B01142F79012B
:1007900040E062E00E94960344E06AE0CE010E94DD
:1007A000960340E864E1CE010E949603A601612F02
:1007B000CE010E942B0743E062E0CE010E94960327
:1007C00008E813E16AE0CE010E94780382FF13C0BB
:1007D00040E062E0CE010E94960364E4CE010E94F4
:1007E0007803F701808362E4CE010E947803F70169
:1007F000818380E004C00150110921F783E0DF917B
:10080000CF911F910F91FF90EF90DF90CF900895BF
:10081000EF92FF921F93CF93DF931F92CDB7DEB776
:100820007C01162F49830E94780349814095482313
:10083000612FC7010F90DF91CF911F91FF90EF9033
:100840000C9496038F929F92AF92CF92EF92FF9269
:100850000F931F93CF93DF9300D000D01F92CDB79B
:10086000DEB74C0182E08D8340E064E2C4010E9467
:10087000960340E066E2C4010E94960346E268E403
:10088000C4010E94960386E28C838D81823018F128
:1008900040E86CE1C4010E94080487E08B83A12C2E
:1008A000C12CCE0103967C018E010B5F1F4F9E0170
:1008B0002F5F3F4F41E0BE016C5F7F4FC4010E943C
:1008C000660781110BC08D81823039F481E09B81F4
:1008D000911104C008C084E001C081E091E0823041
:1008E00019F090E001C091E0892F0F900F900F90C8
:1008F0000F900F90DF91CF911F910F91FF90EF908C
:10090000CF90AF909F908F9008952F923F924F92EB
:100910005F926F927F928F929F92AF92BF92CF928F
:10092000DF92EF92FF920F931F93CF93DF93CDB798
:10093000DEB72D970FB6F894DEBF0FBECDBF4135A1
:1009400008F00BC1342E3B014C0140E86CE10E94E1
:100950000804BB24B39422E0B21691F033E0B3163E
:10096000E1F041E0B412FDC083E989833320D1F086
:1009700081E0F3019081953008F480E0D12C17C01C
:1009800085E98983332081F081E0F30190819830FB
:1009900008F480E053E0D52E0AC087E9898346E059
:1009A000D42E04C0D12C02C033E0D32E80E0532DCE
:1009B000F8EFDF9E500D112457FD50E0882321F001
:1009C00098E89B8343E001C042E021E0952F9770B7
:1009D00009F420E0952F959595959595290F21F48B
:1009E000882311F1585F20C0811102C094E001C03A
:1009F00093E0291708F4922F20E030E06D2D70E08D
:100A0000E42FE20FA1E0B0E0AC0FBD1FAE0FB11DAF
:100A1000F901E60FF71FE60DF71DE181EC932F5F5B
:100A20003F4F291768F3DCCF23E0222E5032FCF031
:100A300020E72A839C818B8189279D8189279E813C
:100A400089278F839E01285F3F4F47E0BE016F5F7C
:100A50007F4FC4015D870E94BC035D858111CDC0BD
:100A60001B862A86CE0107962C0179E01EC0952FA1
:100A700097709B87252F25952595259582E0820FD8
:100A8000392FE0E18E9F300D11243A8371E09111EE
:100A900001C070E0780F44244394512C4C0E5D1E2D
:100AA000480E511C87E0821B8A87CB844C2D4295CF
:100AB000407F4C0D6AE1C4015D877C870E949603EC
:100AC000A12C9E01255F3F4F79018E01065F1F4FCC
:100AD00092017C85472FBE016F5F7F4FC4010E944A
:100AE00066075D85823099F56CE1C4010E94780348
:100AF0005D8585FD34C08F7109F480E2282F30E0D8
:100B0000452F550F550B421753075CF5582FC90158
:100B100001978770992725952595259531E0320F06
:100B200021E0009709F420E0230FE1E0F0E0EC0F72
:100B3000FD1FE20FF11D21E030E002C0220F331F44
:100B40008A95E2F7C9019081892B80836FCF81114B
:100B500054C0503244F450E26BCF86E04EC082E085
:100B60004CC085E04AC08B81883809F043C033E02F
:100B700023E080E090E06D2D70E0FC01E60FF71FB0
:100B8000E60DF71D432F480FA1E0B0E0AC0FBD1FED
:100B9000A40FB11D4C9141830196821770F38A8591
:100BA000833021F58B85811121C09E012D5F3F4F40
:100BB00041E0B201C4010E94BC0381111EC09B81AF
:100BC000F2018181981314C09C818281981310C016
:100BD000808182FF02C0B394BECEF30183878B2D48
:100BE000880FB80EB394B08280E007C081E005C0E2
:100BF00087E003C032E024E0BCCF2D960FB6F89416
:100C0000DEBF0FBECDBFDF91CF911F910F91FF903F
:100C1000EF90DF90CF90BF90AF909F908F907F909C
:100C20006F905F904F903F902F90089590E0FC015F
:100C3000E255FF4F2491FC01E656FF4F8491882333
:100C400099F090E0880F991FFC01E057FF4FA591A4
:100C5000B491FC01EA57FF4F859194918FB7F894B6
:100C6000EC91E22BEC938FBF0895EF92FF920F93DC
:100C70001F93CF93DF93EC01623018F08F8588606B
:100C80008F876B8B1C8A80E48D8B80E18E8B80E557
:100C90008F8B8C810E9416068D818F3F11F00E94F0
:100CA00016068E810E9416067E0187E0E80EF11C72
:100CB00000E010E08F8584FD03C084E090E002C076
:100CC00088E090E00817190744F4F70181917F014B
:100CD0000E9416060F5F1F4FEDCF8BE39DE001973B
:100CE000F1F760E08C810E94270260E08E810E9413
:100CF00027028D818F3F19F060E00E9427026F85E7
:100D000064FD1DC063E0CE010E94DC020BE416E42A
:100D1000C8010197F1F763E0CE010E94DC02C8012F
:100D20000197F1F763E0CE010E94DC0283E592E0D7
:100D30000197F1F762E0CE010E94DC0216C060620A
:100D4000CE010E9462038BE496E40197F1F76F8570
:100D50006062CE010E94620383E592E00197F1F7A1
:100D60006F856062CE010E9462036F856062CE0172
:100D70000E94620384E0888B6CE0CE010E946203D3
:100D8000CE010E94650382E0898B66E0CE01DF918F
:100D9000CF911F910F91FF90EF900C9462030097F9
:100DA00069F0FC0101900020E9F73197AF01481B81
:100DB000590BBC018EE092E00C948C0080E090E036
:100DC0000895843008F083E090912102891710F093
:100DD0008FEF890FE82FF0E0E25FFD4F64896068D4
:100DE0008EE092E00C9462038F929F92AF92BF923A
:100DF000CF92DF92EF92FF920E946D024B015C0155
:100E000082E3C82ED12CE12CF12C0E946D02DC0172
:100E1000CB0188199909AA09BB09883E9340A1050D
:100E2000B10558F021E0C21AD108E108F10888EEB6
:100E3000880E83E0981EA11CB11CC114D104E104EA
:100E4000F10419F7FF90EF90DF90CF90BF90AF9033
:100E50009F908F900895CF92DF92EF92FF920F9321
:100E60001F93CF93DF9300D0CDB7DEB78C01F62E62
:100E700083E590E049835A830E94750360E0F8019E
:100E800086850E94270282E10E946E034981E42E3A
:100E9000C42E5A81D52E8C2D8E198F1530F4F60163
:100EA00081916F010E946E03F6CF61E0F8018685A3
:100EB0000E9427020F900F90DF91CF911F910F9109
:100EC000FF90EF90DF90CF900C946D034F925F9264
:100ED0006F927F928F929F92AF92BF92CF92DF924A
:100EE000EF92FF920F931F93CF93DF9300D0CDB774
:100EF000DEB74C012B01D42E3901E114F10419F0B5
:100F0000F701408101C040E0B42EF0E1CF9EB00C6B
:100F1000112440E062E0C4010E9496034FE768E0BC
:100F2000C4010E94960340E864E1C4010E94960354
:100F3000A2016D2DC4010E942B074B2D6AE1C40153
:100F40000E9496034CE062E0C4010E9496036AE1AD
:100F5000C4010E947803482F40686AE1C4010E94DE
:100F6000960380ED482E87E0582E68E0C4010E9469
:100F70007803982F907341F480FD04C081E0481AF3
:100F8000510899F783E0A0C06CE0C4010E94780387
:100F9000D82E837109F097C06114710409F459C007
:100FA0000115110509F455C064E1C4010E947803DC
:100FB000B82EF80180818B1508F47FC0B082BB2069
:100FC000E9F183E590E00E94750360E0F401868515
:100FD0000E94270282E90E946E03CC20A1F08FEFCD
:100FE00090E02C0101C0440CCA94EAF782E90E9407
:100FF0006E0384214094F3019081492284298083E7
:10100000CC24C39401C0C12CBA944C2C512C460C56
:10101000571CCB1438F482E90E946E03F2018083DE
:10102000C394F3CF80E00E946E03F201808361E0FD
:10103000F40186850E9427020E946D0368E1C401C5
:101040000E9478038770E114F10421F0F701808396
:1010500001C080E0D3FC33C06114710491F101152B
:10106000110579F1AA2069F1F8014081413019F4A4
:10107000843019F420C0423010F487E025C081117B
:10108000FCCF42509E012F5F3F4FB301C4010E942D
:10109000BC03811119C0F8018081680E711CF30135
:1010A0003297908189819813E8CF319690818A8117
:1010B0009813E3CF06C08FEF07C084E005C082E03D
:1010C00003C080E001C081E00F900F90DF91CF91CD
:1010D0001F910F91FF90EF90DF90CF90BF90AF9056
:1010E0009F908F907F906F905F904F900895CF93D7
:1010F000DF93CDB7DEB7A1970FB6F894DEBF0FBE72
:10110000CDBF789484B5826084BD84B5816084BD90
:1011100085B5826085BD85B5816085BD80916E0095
:10112000816080936E0010928100809181008260C6
:101130008093810080918100816080938100809103
:1011400080008160809380008091B10084608093F2
:10115000B1008091B00081608093B00080917A00EE
:10116000846080937A0080917A00826080937A0014
:1011700080917A00816080937A0080917A00806803
:1011800080937A001092C100E0918101F091820178
:1011900082E08083E0917D01F0917E011082E091F8
:1011A0007F01F09180018FEC808310928901E091A2
:1011B0008501F091860186E08083E0918301F091C2
:1011C0008401808180618083E0918301F0918401BA
:1011D000808188608083E0918301F0918401808127
:1011E00080688083E0918301F091840180818F7D0C
:1011F00080831FB7F89480916501811124C0E4EACF
:10120000F0E08491E8EBF0E09491E82FF0E0EE0F4D
:10121000FF1FE057FF4FA591B491EC91E92321F412
:1012200061E08AE00E9427028AE00E9416068CB5DF
:1012300080618CBD8CB580648CBD8DE00E941606EB
:101240008BE00E941606809165018F5F8093650197
:101250001FBF809134020E94160661E08091340223
:101260000E942702809135028F3F49F44FE062E0EF
:1012700086E292E00E9496030E94F40624C00E9437
:1012800016062091350230E0F901EE58FF4F8491A7
:10129000F901E255FF4FF490F901E656FF4F149122
:1012A000112309F43DC181110E949201E12FF0E068
:1012B000EE0FFF1FE859FF4FA591B491EC91EF217C
:1012C00009F42EC1D3CF62E086E292E00E94780357
:1012D00084FDF9CF40E064E286E292E00E9496034A
:1012E00040E066E286E292E00E94960346E268E40D
:1012F00086E292E00E94960340E864E586E292E08E
:101300000E94960349EA66E586E292E00E9496030F
:1013100043E068E586E292E00E94960348EE6AE5C3
:1013200086E292E00E94960340E46AE286E292E05E
:101330000E9496034DE362E286E292E00E949603E9
:1013400068E286E292E00E947803982F93709330CF
:1013500039F0482F436068E286E292E00E949603EB
:1013600062E08EE092E00E94350680E00E94E10695
:1013700088E291E00E94CF0680E5B82E9AE0492EDF
:10138000512C612C712C86E292E00E942204882369
:1013900009F4A7C086E292E00E94BF01882309F405
:1013A000A0C080912902803609F0D8C080912A021D
:1013B000803909F0D3C080912B02893F09F0CEC05B
:1013C00080912C02873A09F0C9C080916F019091F9
:1013D000700101969093700180936F018EE092E00E
:1013E0000E94650380E00E94E10686E391E00E948E
:1013F000CF0681E00E94E1068EE391E00E94CF06D5
:10140000C0906F01D09070010D2C000CEE08FF0809
:10141000F7FE8EC0E0910E02F0910F020190F08174
:10142000E02D6DE28EE092E0099522273327A90195
:101430002C193D094E095F0919A2CE0181967C0144
:10144000CA01B901A30192010E941F0B605DF7015F
:1014500062937F01211531054105510589F7C701C7
:101460000E94CF0681E080936E012FB7F89480919F
:10147000660190916701A0916801B09169012FBF49
:1014800088579C4EAF4FBF4F80936A0190936B017A
:10149000A0936C01B0936D01B9821A829E012D5FF9
:1014A0003F4F42E0BE016F5F7F4F86E292E00E94B5
:1014B000BC03811110C0A12CC12CE12CF12C00E047
:1014C00010E020E030E044E0BE016F5F7F4F86E235
:1014D00092E00E94660748E060E186E292E00E94A6
:1014E000080480916E018823C1F040916A015091F7
:1014F0006B0160916C0170916D012FB7F894809130
:10150000660190916701A0916801B09169012FBFB8
:10151000481759076A077B0778F10E94880133CF83
:1015200061E0809135020E9427020E94F406D2CE2B
:10153000A701960119A2CE0181967C01CA01B901C9
:10154000A30192010E941F0B605DF70162937F016E
:10155000211531054105510589F781CF8EE092E0D3
:101560000E94650380E00E94E1068BE491E00E9406
:10157000CF0610926E0190CF8EE092E00E9465033C
:1015800010926E0180E00E94E10686E591E00E94E3
:10159000CF06C3CFE1E7F1E01382128288EE93E039
:1015A000A0E0B0E084839583A683B78384E091E0D4
:1015B0009183808385EC90E09587848784EC90E02C
:1015C0009787868780EC90E0918B808B81EC90E010
:1015D000938B828B82EC90E0958B848B86EC90E0F1
:1015E000978B868B118E128E138E148EE6E2F2E0AC
:1015F00082E291E0918380838AE0868789E0878711
:10160000EEE0F2E01382128286E191E09183808322
:1016100082E084838FEF858383E0868384E0878301
:1016200085E0808786E0818787E08287138614863D
:1016300015861686178661E0CF010C943506A1E267
:101640001A2EAA1BBB1BFD010DC0AA1FBB1FEE1F3C
:10165000FF1FA217B307E407F50720F0A21BB30B87
:10166000E40BF50B661F771F881F991F1A9469F703
:1016700060957095809590959B01AC01BD01CF015F
:101680000895EE0FFF1F0590F491E02D099481E07D
:0C16900090E0F8940C944C0BF894FFCF01
:10169C00000000001F018C00B7006601E800C600C6
:1016AC00DA00000000005C038C00BC01BB010000F0
:1016BC00000085042204BF0150726F6261207379AF
:1016CC007374656D75004F74776172747900496C31
:1016DC006F73632077656A736320004E69656F7062
:1016EC007261776E79005A616D6B6E696574650015
:00000001FF
